:020000040800F2
:100000002004002001010008AD0200086D02000874
:10001000A902000849010008230F000800000000A1
:100020000000000000000000000000008D04000837
:100030004D010008000000005D030008790500087C
:100040001B0100081B0100081B0100081B01000820
:100050001B0100081B0100081B0100081B01000810
:100060001B0100081B0100081B0100081B01000800
:100070001B0100081B0100081B0100081B010008F0
:100080001B0100081B0100081B0100081B010008E0
:100090001B0100081B0100081B0100081B010008D0
:1000A0001B0100081B0100081B0100081B010008C0
:1000B0001B0100081B0100081B0100081B010008B0
:1000C0001B0100081B0100081B0100081B010008A0
:1000D0001B010008850900081B010008CD0B000862
:1000E0001B0100081B0100081B010008DFF80CD0F1
:1000F00000F018F800480047F90F0008200400201D
:100100000648804706480047FEE7FEE7FEE7FEE7B1
:10011000FEE7FEE7FEE7FEE7FEE7FEE77D050008F7
:10012000ED000008064C074D06E0E06840F00103D2
:1001300094E8070098471034AC42F6D3FFF7DAFF93
:10014000381000085810000800BFFEE770472DE97E
:10015000F04102460025002600200023002400274D
:1001600091F803C00CF00F0591F803C00CF0100CCF
:10017000BCF1000F03D091F802C04CEA050591F8DC
:1001800000C0BCF1000F31D0146800202BE04FF00C
:10019000010C0CFA00F3B1F800C00CEA03069E4211
:1001A00020D183004FF00F0C0CFA03F7BC4305FA83
:1001B00003FC4CEA040491F803C0BCF1280F06D1FB
:1001C0004FF0010C0CFA00FCC2F814C00AE091F8E0
:1001D00003C0BCF1480F05D14FF0010C0CFA00FC34
:1001E000C2F810C0401C0828D1D31460B1F800C078
:1001F000BCF1FF0F34DD546800202EE000F1080C44
:100200004FF0010808FA0CF3B1F800C00CEA03063D
:100210009E4221D183004FF00F0C0CFA03F7BC4330
:1002200005FA03FC4CEA040491F803C0BCF1280F62
:1002300005D100F1080C08FA0CF8C2F8148091F806
:1002400003C0BCF1480F07D100F1080C4FF00108C2
:1002500008FA0CF8C2F81080401C0828CED354606D
:10026000BDE8F081416170470161704700BFFEE762
:1002700008B50121082000F08FF84FF47040ADF868
:10028000000010208DF8030003208DF8020069465D
:100290000448FFF75CFF4FF470410248FFF7E4FFAA
:1002A00008BD0000000C014000BFFEE7704708B524
:1002B0004FF4E06000F048F827208DF8000000209F
:1002C0008DF801008DF8020001208DF803006846CA
:1002D00000F002F808BD000070B5002100230F22D5
:1002E000C47804B3154C246804F4E064C4F5E064F5
:1002F000210AC1F10403CA40447804FA03F1847866
:100300001440214309010E4C0678A155047804F0ED
:100310001F050124AC4005786D11AD0005F1E02505
:10032000C5F8004109E0047804F01F050124AC4041
:10033000044D0678761145F8264070BD0CED00E0BE
:1003400000E400E080E100E002490143024A11605C
:10035000704700000000FA050CED00E0704770B532
:1003600005462C4603E0207800F0DAFB641C207878
:100370000028F8D170BD000029B1064AD2690243B5
:10038000044BDA6104E0034AD2698243014BDA612B
:10039000704700000010024029B1064A92690243EA
:1003A000044B9A6104E0034A92698243014B9A61CB
:1003B000704700000010024030B5002100220024E8
:1003C00000232D4D6D6805F00C0121B1042905D0E5
:1003D000082923D105E0294D056022E0274D05605D
:1003E0001FE0254D6D6805F47012234D6D6805F40E
:1003F0008034022505EB92421CB9214D554305601E
:100400000BE01D4D6D6805F400351DB11C4D5543C5
:10041000056002E0194D5543056002E0174D056087
:1004200000BF00BF144D6D6805F0F0010909154DBE
:100430006B5C0568DD4045600F4D6D6805F4E0615B
:10044000090A104D6B5C4568DD4085600A4D6D689A
:1004500005F46051C90A0B4D6B5C4568DD40C56011
:10046000054D6D6805F44041890B074D6B5CC5680F
:10047000B5FBF3F5056130BD0010024000127A00B3
:1004800000093D000000002010000020704710B55A
:1004900000F002F810BD00000CB5002001900090A3
:1004A0003348006840F480303149086000BF30486C
:1004B000006800F4003000900198401C0190009802
:1004C00018B90198B0F5A06FF1D12948006800F47F
:1004D000003010B10120009001E000200090009851
:1004E000012843D12348006840F0100021490860EA
:1004F0000846006820F0030008600846006840F0E5
:10050000020008601A484068194948600846406877
:1005100048600846406840F480604860084640688B
:1005200020F47C1048600846406840F4E8104860B9
:100530000846006840F08070086000BF0C48006802
:1005400000F000700028F9D00948406820F003004E
:10055000074948600846406840F00200486000BF14
:100560000348406800F00C000828F9D10CBD0000D9
:1005700000100240002002407047000010B51348F0
:10058000006840F0010011490860084640681049C1
:1005900008400E494860084600680E4908400B496B
:1005A00008600846006820F480200860084640681B
:1005B00020F4FE0048604FF41F008860FFF767FFDB
:1005C0004FF000600449086010BD000000100240B8
:1005D0000000FFF8FFFFF6FE08ED00E008B501217E
:1005E0000846FFF7C9FE01210420FFF7D5FE0C20C5
:1005F000ADF8000018208DF8030003208DF80200EC
:1006000069460248FFF7A3FD08BD0000000801404D
:1006100030B587B000250024FF20ADF8140003207A
:10062000ADF810000020ADF81600ADF8120004A9D6
:100630004FF0804000F0F4F86020ADF80000012099
:10064000ADF80200ADF806500020ADF8080069468C
:100650004FF0804000F03AF80821C80600F086F814
:100660000120ADF80200ADF806406946800700F0B1
:1006700087F80821C80600F0C1F80121880700F0BA
:100680000CF80121880700F014F807B030BD10B550
:10069000FFF7A4FFFFF7BCFF10BD21B1028842F0B5
:1006A0008002028004E002884FF67F731A400280C5
:1006B000704721B1028842F00102028004E0028802
:1006C0004FF6FE731A4002807047000070B5002498
:1006D00000220023058C4FF6FF6635400584028C0E
:1006E0008388848B4FF68F752C404FF6FC752C4019
:1006F0000D882C434FF6FF552A400D894FF6FF76A3
:1007000006EA05252A434D8806EA05252A43154DA4
:10071000A84202D0144DA8421DD14FF2FF752A40C5
:100720004D894FF6FF7606EA05252A434FF6FF3539
:100730002A408D8806EA05252A434EF6FF752B4090
:100740004DF6FF752B408D8906EA05152B43CD89A3
:1007500006EA05152B4383808483CD888587028430
:1007600070BD0000002C0140003401400A46002109
:10077000818B4FF6F7731940114381837047000056
:1007800070B5002200230024058C4EF6FF7635401C
:100790000584038C8488828B48F6FF752A404FF6C7
:1007A000FF452A400D884FF6FF7606EA05252A43C5
:1007B0004DF6FF752B400D8906EA05352B434D8814
:1007C00006EA05352B430B4DA84202D00A4DA8423C
:1007D00008D14BF6FF752C408D894FF6FF7606EA5F
:1007E00085152C4384808283CD88A0F840500384F3
:1007F00070BD0000002C0140003401400A46002179
:10080000818B4FF2FF7319404FF6FF7303EA022307
:1008100019438183704781877047A0F84010704763
:10082000002202881D4B98420ED01D4B98420BD0DF
:10083000B0F1804F08D01B4B984205D01A4B98421C
:1008400002D01A4B984204D14FF68F731A404B884E
:100850001A43174B984207D0164B984204D04FF6D4
:10086000FF431A40CB881A4302808B8883850B880C
:1008700003850A4B98420BD0094B984208D00E4B87
:10088000984205D00D4B984202D00D4B984201D1B1
:100890000B7A03860123838270470000002C0140FD
:1008A000003401400004004000080040000C0040FB
:1008B000001000400014004000400140004401408E
:1008C0000048014000B587B001210420FFF764FD16
:1008D00001218803FFF760FD01210846FFF75CFD59
:1008E0004FF40070ADF8180003208DF81A0018209E
:1008F0008DF81B0006A92148FFF729FC4FF4806002
:10090000ADF8180004208DF81B0006A91B48FFF75E
:100910001EFC4FF4165002900020ADF80C00ADF80C
:100920000E00ADF81000ADF814000C20ADF8120068
:1009300002A9134800F080FA0121114800F013FACF
:10094000012240F225510E4800F050FA40210C4897
:1009500000F000FA4FF4C060FFF7F6FC25208DF898
:10096000040000208DF8050001208DF806008DF8A8
:10097000070001A8FFF7B0FC07B000BD0008014068
:100980000038014010B54021554800F0E3F940F22D
:100990002551534800F000FA00287CD0504800F060
:1009A000B7FA50490870084601784D4800F0B5FA8A
:1009B00000BF80214A4800F0E2F90028F9D04AA09F
:1009C000FFF7CDFC474800786C2850D006DC622841
:1009D00021D0642878D066287FD106E0722830D0F4
:1009E00073285CD0752878D162E04FF420414148EB
:1009F000FFF738FC4FF4A0413E48FFF735FC3EA01E
:100A0000FFF7ADFCC82000F09DFA4FF47041394863
:100A1000FFF72AFC61E04FF420413648FFF724FC41
:100A20004FF4A0413348FFF71DFC35A0FFF797FCBA
:100A3000C82000F087FA4FF470412E48FFF714FCED
:100A40004BE04FF4C0412B48FFF70CFC4FF4104132
:100A50002848FFF709FC2CA0FFF781FCC82000F014
:100A600071FA4FF470412348FFF7FEFB35E04FF475
:100A700010412048FFF7F6FB4FF4C0411D48FFF737
:100A8000F3FB23A0FFF76BFCC82000F05BFA4FF4E8
:100A90007041184800E021E0FFF7E6FB1DE04FF44D
:100AA00070411448FFF7E0FB1BA0FFF758FC14E06F
:100AB0003C214FF08040FFF7AEFE3C214FF08040DC
:100AC000FFF7ABFE09E0FFE72821C806FFF7A3FE0A
:100AD0002821C806FFF7A1FE00BF00BF10BD00001F
:100AE000003801401900002053706565642055509E
:100AF00000000000000C0140466F727761726400D4
:100B00004261636B00000000526967687400000076
:100B10004C6566740000000053746F7000000000A4
:100B200010B504462146054800F0F7F900BF402102
:100B3000024800F024F90128F9D110BD0038014025
:100B400000B585B001218804FFF716FC01210820BB
:100B5000FFF722FC4FF48060ADF8100018208DF8EC
:100B6000130003208DF8120004A91648FFF7EFFACE
:100B70004FF40060ADF8100004208DF8130004A9B4
:100B80001048FFF7E4FA4FF4165000900020ADF83B
:100B90000400ADF80600ADF80800ADF80C000C201C
:100BA000ADF80A006946084800F046F9012240F213
:100BB0002551054800F01AF90121034800F0D3F847
:100BC00005B000BD000C01400048004010B54021B8
:100BD000534800F0BFF840F22551514800F0DCF8CE
:100BE00000287BD04E4800F093F94E490870084623
:100BF00001784B4800F091F900BF8021484800F08F
:100C0000BEF80028F9D0474800786C2850D006DCA0
:100C1000622821D0642877D066287ED106E0722829
:100C200030D073285BD0752877D161E04FF4204134
:100C30003D48FFF717FB4FF4A0413B48FFF714FB7B
:100C40003AA0FFF78CFBC82000F07CF94FF470410C
:100C50003548FFF709FB60E04FF420413248FFF7C9
:100C600003FB4FF4A0413048FFF7FCFA31A0FFF737
:100C700076FBC82000F066F94FF470412A48FFF770
:100C8000F3FA4AE04FF4C0412748FFF7EBFA4FF47C
:100C900010412548FFF7E8FA28A0FFF760FBC820BD
:100CA00000F050F94FF470411F48FFF7DDFA34E0CF
:100CB0004FF410411C48FFF7D5FA4FF4C0411A48D1
:100CC000FFF7D2FA1FA0FFF74AFBC82000F03AF95D
:100CD0004FF470411448FFF7C7FA1EE01EE04FF4CE
:100CE00070411148FFF7C0FA18A0FFF738FB14E075
:100CF0003C214FF08040FFF78EFD3C214FF08040BB
:100D0000FFF78BFD09E0FFE72821C806FFF783FD09
:100D10002821C806FFF781FD00BF00BF10BD0000FD
:100D20000048004018000020000C0140466F727718
:100D3000617264004261636B000000005269676881
:100D4000740000004C6566740000000053746F70FE
:100D50000000000001F40072B2F5007F00D100BF76
:100D6000CA430280704721B1828942F400528281D5
:100D700004E082894DF6FF731A4082817047024673
:100D80000020B1F5007F00D100BF13880B400BB1EC
:100D9000012000E00020704770B5024600240023C7
:100DA0000025002040F66A16B14200D100BFC1F311
:100DB000421501F01F03012606FA03F3012D02D1AB
:100DC0009689334006E0022D02D1168A334001E0B5
:100DD000968A33400C12012606FA04F41688344031
:100DE00013B10CB1012000E0002070BDF0B5034646
:100DF000002400260025002040F66A17B94200D1E1
:100E000000BF1846C1F3421401F01F06012707FA7C
:100E100006F5012C01D10C3004E0022C01D1103078
:100E200000E014301AB107682F43076002E007683A
:100E3000AF430760F0BD00002DE9F04786B00546DE
:100E40000E460024A24600BFA1460027B08900B18B
:100E500000BF2F462C8A4CF6FF700440F0880443F4
:100E60002C82AC894EF6F3100440B08831890843D7
:100E7000718908430443AC81AC8A4FF6FF400440BB
:100E8000B0890443AC8201A8FFF796FA1F48874255
:100E900002D1DDF810A001E0DDF80CA0A88900F473
:100EA000004040B10AEBCA0000EB0A10316849006B
:100EB000B0FBF1F807E00AEBCA0000EB0A1031685A
:100EC0008900B0FBF1F86420B8FBF0F004012009C0
:100ED000642101FB1089A88900F4004040B1322050
:100EE00000EBC900B0FBF1F000F00700044308E09C
:100EF000322000EB09106421B0FBF1F000F00F008C
:100F000004432C8106B0BDE8F087000000380140A2
:100F100001468888C0F308007047C1F30802828048
:100F2000704700BFFEE702E008C8121F08C1002A90
:100F3000FAD170477047002001E001C1121F002A5A
:100F4000FBD1704710B503464FF47A7003FB00F4F1
:100F5000204600F001F810BD002100BF48E000BFAE
:100F600000BF00BF00BF00BF00BF00BF00BF00BF89
:100F700000BF00BF00BF00BF00BF00BF00BF00BF79
:100F800000BF00BF00BF00BF00BF00BF00BF00BF69
:100F900000BF00BF00BF00BF00BF00BF00BF00BF59
:100FA00000BF00BF00BF00BF00BF00BF00BF00BF49
:100FB00000BF00BF00BF00BF00BF00BF00BF00BF39
:100FC00000BF00BF00BF00BF00BF00BF00BF00BF29
:100FD00000BF00BF00BF00BF00BF00BF00BF00BF19
:100FE00000BF00BF00BF00BF00BF00BF00BF491C63
:100FF0008142B4D370470000FFF764FCFFF7A0FD07
:10100000FFF755F9FFF743FBFFF732F932214807A5
:10101000FFF701FC32214807FFF7FFFB4FF42041A7
:101020000448FFF721F94FF4A0410248FFF71CF9EB
:1010300000BFFEE7000C014058100008000000202F
:101040001C000000260F0008741000081C0000207F
:1010500004040000360F0008000000000102030431
:1010600001020304060708090204060864000000E0
:04107000000000007C
:04000005080000ED02
:00000001FF
